{
  "contractName": "Election",
  "abi": [
    {
      "inputs": [],
      "stateMutability": "nonpayable",
      "type": "constructor"
    },
    {
      "anonymous": false,
      "inputs": [
        {
          "indexed": false,
          "internalType": "uint256",
          "name": "id",
          "type": "uint256"
        }
      ],
      "name": "electionupdate",
      "type": "event"
    },
    {
      "inputs": [
        {
          "internalType": "uint256",
          "name": "",
          "type": "uint256"
        }
      ],
      "name": "candidates",
      "outputs": [
        {
          "internalType": "uint256",
          "name": "id",
          "type": "uint256"
        },
        {
          "internalType": "string",
          "name": "name",
          "type": "string"
        },
        {
          "internalType": "uint256",
          "name": "votecount",
          "type": "uint256"
        }
      ],
      "stateMutability": "view",
      "type": "function",
      "constant": true
    },
    {
      "inputs": [],
      "name": "candidatesCount",
      "outputs": [
        {
          "internalType": "uint256",
          "name": "",
          "type": "uint256"
        }
      ],
      "stateMutability": "view",
      "type": "function",
      "constant": true
    },
    {
      "inputs": [
        {
          "internalType": "address",
          "name": "",
          "type": "address"
        }
      ],
      "name": "votedornot",
      "outputs": [
        {
          "internalType": "bool",
          "name": "",
          "type": "bool"
        }
      ],
      "stateMutability": "view",
      "type": "function",
      "constant": true
    },
    {
      "inputs": [
        {
          "internalType": "string",
          "name": "name",
          "type": "string"
        }
      ],
      "name": "addCandiate",
      "outputs": [],
      "stateMutability": "nonpayable",
      "type": "function"
    },
    {
      "inputs": [
        {
          "internalType": "uint256",
          "name": "_candidateId",
          "type": "uint256"
        }
      ],
      "name": "vote",
      "outputs": [],
      "stateMutability": "nonpayable",
      "type": "function"
    }
  ],
  "bytecode": "0x60806040523480156200001157600080fd5b50620000586040518060400160405280600c81526020017f646f6e616c64207472756d700000000000000000000000000000000000000000815250620000a460201b60201c565b6200009e6040518060400160405280600981526020017f6261726b206f626d610000000000000000000000000000000000000000000000815250620000a460201b60201c565b620002c4565b600080815480929190620000b89062000218565b919050555060405180606001604052806000548152602001828152602001600081525060016000805481526020019081526020016000206000820151816000015560208201518160010190805190602001906200011792919062000128565b506040820151816002015590505050565b8280546200013690620001e2565b90600052602060002090601f0160209004810192826200015a5760008555620001a6565b82601f106200017557805160ff1916838001178555620001a6565b82800160010185558215620001a6579182015b82811115620001a557825182559160200191906001019062000188565b5b509050620001b59190620001b9565b5090565b5b80821115620001d4576000816000905550600101620001ba565b5090565b6000819050919050565b60006002820490506001821680620001fb57607f821691505b6020821081141562000212576200021162000295565b5b50919050565b60006200022582620001d8565b91507fffffffffffffffffffffffffffffffffffffffffffffffffffffffffffffffff8214156200025b576200025a62000266565b5b600182019050919050565b7f4e487b7100000000000000000000000000000000000000000000000000000000600052601160045260246000fd5b7f4e487b7100000000000000000000000000000000000000000000000000000000600052602260045260246000fd5b6109a080620002d46000396000f3fe608060405234801561001057600080fd5b50600436106100575760003560e01c80630121b93f1461005c5780631bc57022146100785780632d35a8a2146100a85780633477ee2e146100c65780636574354b146100f8575b600080fd5b61007660048036038101906100719190610572565b610114565b005b610092600480360381019061008d9190610508565b61027b565b60405161009f9190610632565b60405180910390f35b6100b061029b565b6040516100bd919061066d565b60405180910390f35b6100e060048036038101906100db9190610572565b6102a1565b6040516100ef93929190610688565b60405180910390f35b610112600480360381019061010d9190610531565b610353565b005b600260003373ffffffffffffffffffffffffffffffffffffffff1673ffffffffffffffffffffffffffffffffffffffff16815260200190815260200160002060009054906101000a900460ff16156101a1576040517f08c379a00000000000000000000000000000000000000000000000000000000081526004016101989061064d565b60405180910390fd5b6000811180156101b357506000548111155b6101bc57600080fd5b600180600083815260200190815260200160002060020160008282546101e29190610743565b925050819055506001600260003373ffffffffffffffffffffffffffffffffffffffff1673ffffffffffffffffffffffffffffffffffffffff16815260200190815260200160002060006101000a81548160ff0219169083151502179055507f7c3ba50dfb97b1b2a5acb45148d4e05cd49e5b845b59ae27cc66f4fd8437eb3281604051610270919061066d565b60405180910390a150565b60026020528060005260406000206000915054906101000a900460ff1681565b60005481565b60016020528060005260406000206000915090508060000154908060010180546102ca90610823565b80601f01602080910402602001604051908101604052809291908181526020018280546102f690610823565b80156103435780601f1061031857610100808354040283529160200191610343565b820191906000526020600020905b81548152906001019060200180831161032657829003601f168201915b5050505050908060020154905083565b60008081548092919061036590610855565b919050555060405180606001604052806000548152602001828152602001600081525060016000805481526020019081526020016000206000820151816000015560208201518160010190805190602001906103c29291906103d3565b506040820151816002015590505050565b8280546103df90610823565b90600052602060002090601f0160209004810192826104015760008555610448565b82601f1061041a57805160ff1916838001178555610448565b82800160010185558215610448579182015b8281111561044757825182559160200191906001019061042c565b5b5090506104559190610459565b5090565b5b8082111561047257600081600090555060010161045a565b5090565b6000610489610484846106f7565b6106c6565b9050828152602081018484840111156104a157600080fd5b6104ac8482856107e1565b509392505050565b6000813590506104c38161093c565b92915050565b600082601f8301126104da57600080fd5b81356104ea848260208601610476565b91505092915050565b60008135905061050281610953565b92915050565b60006020828403121561051a57600080fd5b6000610528848285016104b4565b91505092915050565b60006020828403121561054357600080fd5b600082013567ffffffffffffffff81111561055d57600080fd5b610569848285016104c9565b91505092915050565b60006020828403121561058457600080fd5b6000610592848285016104f3565b91505092915050565b6105a4816107ab565b82525050565b60006105b582610727565b6105bf8185610732565b93506105cf8185602086016107f0565b6105d88161092b565b840191505092915050565b60006105f0601e83610732565b91507f596f75206861766520766f74656420666f72207061727469636970616e7400006000830152602082019050919050565b61062c816107d7565b82525050565b6000602082019050610647600083018461059b565b92915050565b60006020820190508181036000830152610666816105e3565b9050919050565b60006020820190506106826000830184610623565b92915050565b600060608201905061069d6000830186610623565b81810360208301526106af81856105aa565b90506106be6040830184610623565b949350505050565b6000604051905081810181811067ffffffffffffffff821117156106ed576106ec6108fc565b5b8060405250919050565b600067ffffffffffffffff821115610712576107116108fc565b5b601f19601f8301169050602081019050919050565b600081519050919050565b600082825260208201905092915050565b600061074e826107d7565b9150610759836107d7565b9250827fffffffffffffffffffffffffffffffffffffffffffffffffffffffffffffffff0382111561078e5761078d61089e565b5b828201905092915050565b60006107a4826107b7565b9050919050565b60008115159050919050565b600073ffffffffffffffffffffffffffffffffffffffff82169050919050565b6000819050919050565b82818337600083830152505050565b60005b8381101561080e5780820151818401526020810190506107f3565b8381111561081d576000848401525b50505050565b6000600282049050600182168061083b57607f821691505b6020821081141561084f5761084e6108cd565b5b50919050565b6000610860826107d7565b91507fffffffffffffffffffffffffffffffffffffffffffffffffffffffffffffffff8214156108935761089261089e565b5b600182019050919050565b7f4e487b7100000000000000000000000000000000000000000000000000000000600052601160045260246000fd5b7f4e487b7100000000000000000000000000000000000000000000000000000000600052602260045260246000fd5b7f4e487b7100000000000000000000000000000000000000000000000000000000600052604160045260246000fd5b6000601f19601f8301169050919050565b61094581610799565b811461095057600080fd5b50565b61095c816107d7565b811461096757600080fd5b5056fea2646970667358221220c008f0ac11e0d45e5d657c801c6dfa2ac0c5ee42b12cddc295590279fd06682b64736f6c63430008000033",
  "immutableReferences": {},
  "source": "// SPDX-License-Identifier:MIT\r\npragma solidity ^0.8.0;\r\ncontract Election{\r\n    // struct candiate\r\n    // mapping candiate\r\n    // constructor\r\n    struct Candidate{\r\n        uint id;\r\n        string name;\r\n        uint votecount;\r\n    }\r\n    // candiate count\r\n    uint public candidatesCount;\r\n    mapping (uint=>Candidate) public candidates;\r\n    mapping (address=>bool) public votedornot;\r\n    event electionupdate(\r\n        uint id);\r\n    constructor(){\r\n        // The code that we want to initate\r\n        // donal trump & bark obma\r\n        addCandiate(\"donald trump\");\r\n        addCandiate(\"bark obma\");\r\n    }\r\n    // addCandiate\r\n    function addCandiate(string memory name) public{\r\n        candidatesCount++;\r\n        candidates[candidatesCount]=Candidate(candidatesCount,name,0);\r\n    }\r\n    function vote(uint _candidateId) public{\r\n        // The person has not voted again\r\n        require(!votedornot[msg.sender],'You have voted for participant');\r\n        // The id that the person has input is available;\r\n        require(_candidateId>0 &&  _candidateId<=candidatesCount);\r\n        // increase the vote count of the person whom the \r\n        // candidates[_id].votecount+=1;\r\n        candidates[_candidateId].votecount+=1;\r\n        // bool true;\r\n        votedornot[msg.sender]=true;\r\n        emit electionupdate(_candidateId);\r\n    }\r\n    // function ad(uint _votecount) public returns(uint){\r\n    //     candidates[2].votecount=_votecount;\r\n    //     return candidates[2].votecount;\r\n    // }\r\n    \r\n}",
  "sourcePath": "D:\\NOTES\\Election_Dapp\\contracts\\Election.sol",
  "compiler": {
    "name": "solc",
    "version": "0.8.0+commit.c7dfd78e.Emscripten.clang"
  },
  "schemaVersion": "3.4.3",
  "updatedAt": "2021-10-29T14:44:33.742Z",
  "networkType": "ethereum",
  "devdoc": {
    "kind": "dev",
    "methods": {},
    "version": 1
  },
  "userdoc": {
    "kind": "user",
    "methods": {},
    "version": 1
  }
}